{
  "contractName": "DonorRegistry",
  "abi": [
    {
      "inputs": [
        {
          "internalType": "uint256",
          "name": "",
          "type": "uint256"
        }
      ],
      "name": "donorAddresses",
      "outputs": [
        {
          "internalType": "address",
          "name": "",
          "type": "address"
        }
      ],
      "stateMutability": "view",
      "type": "function"
    },
    {
      "inputs": [
        {
          "internalType": "address",
          "name": "",
          "type": "address"
        }
      ],
      "name": "donors",
      "outputs": [
        {
          "internalType": "string",
          "name": "name",
          "type": "string"
        },
        {
          "internalType": "string",
          "name": "bloodGroup",
          "type": "string"
        },
        {
          "internalType": "uint256",
          "name": "registrationDate",
          "type": "uint256"
        },
        {
          "internalType": "bool",
          "name": "isAvailable",
          "type": "bool"
        }
      ],
      "stateMutability": "view",
      "type": "function"
    },
    {
      "inputs": [
        {
          "internalType": "string",
          "name": "_name",
          "type": "string"
        },
        {
          "internalType": "string",
          "name": "_bloodGroup",
          "type": "string"
        },
        {
          "internalType": "string[]",
          "name": "_organs",
          "type": "string[]"
        }
      ],
      "name": "registerDonor",
      "outputs": [],
      "stateMutability": "nonpayable",
      "type": "function"
    },
    {
      "inputs": [
        {
          "internalType": "address",
          "name": "_donorAddress",
          "type": "address"
        }
      ],
      "name": "getDonor",
      "outputs": [
        {
          "components": [
            {
              "internalType": "string",
              "name": "name",
              "type": "string"
            },
            {
              "internalType": "string",
              "name": "bloodGroup",
              "type": "string"
            },
            {
              "internalType": "string[]",
              "name": "organs",
              "type": "string[]"
            },
            {
              "internalType": "uint256",
              "name": "registrationDate",
              "type": "uint256"
            },
            {
              "internalType": "bool",
              "name": "isAvailable",
              "type": "bool"
            }
          ],
          "internalType": "struct DonorRegistry.Donor",
          "name": "",
          "type": "tuple"
        }
      ],
      "stateMutability": "view",
      "type": "function"
    },
    {
      "inputs": [],
      "name": "getDonorCount",
      "outputs": [
        {
          "internalType": "uint256",
          "name": "",
          "type": "uint256"
        }
      ],
      "stateMutability": "view",
      "type": "function"
    }
  ],
  "bytecode": "0x608060405234801561000f575f80fd5b506111f18061001d5f395ff3fe608060405234801561000f575f80fd5b5060043610610055575f3560e01c80632b2aee5d1461005957806369bc2f1e1461008957806384c1fd1f146100a757806396c59043146100c3578063ca0cdea8146100f3575b5f80fd5b610073600480360381019061006e9190610821565b610126565b604051610080919061088b565b60405180910390f35b610091610161565b60405161009e91906108b3565b60405180910390f35b6100c160048036038101906100bc9190610aea565b61016d565b005b6100dd60048036038101906100d89190610bb8565b61032c565b6040516100ea9190610dc2565b60405180910390f35b61010d60048036038101906101089190610bb8565b610599565b60405161011d9493929190610e39565b60405180910390f35b60018181548110610135575f80fd5b905f5260205f20015f915054906101000a900473ffffffffffffffffffffffffffffffffffffffff1681565b5f600180549050905090565b5f805f3373ffffffffffffffffffffffffffffffffffffffff1673ffffffffffffffffffffffffffffffffffffffff1681526020019081526020015f2060030154146101ee576040517f08c379a00000000000000000000000000000000000000000000000000000000081526004016101e590610ed4565b60405180910390fd5b6040518060a00160405280848152602001838152602001828152602001428152602001600115158152505f803373ffffffffffffffffffffffffffffffffffffffff1673ffffffffffffffffffffffffffffffffffffffff1681526020019081526020015f205f820151815f01908161026791906110ec565b50602082015181600101908161027d91906110ec565b50604082015181600201908051906020019061029a9291906106dc565b50606082015181600301556080820151816004015f6101000a81548160ff021916908315150217905550905050600133908060018154018082558091505060019003905f5260205f20015f9091909190916101000a81548173ffffffffffffffffffffffffffffffffffffffff021916908373ffffffffffffffffffffffffffffffffffffffff160217905550505050565b610334610733565b5f808373ffffffffffffffffffffffffffffffffffffffff1673ffffffffffffffffffffffffffffffffffffffff1681526020019081526020015f206040518060a00160405290815f8201805461038a90610f1f565b80601f01602080910402602001604051908101604052809291908181526020018280546103b690610f1f565b80156104015780601f106103d857610100808354040283529160200191610401565b820191905f5260205f20905b8154815290600101906020018083116103e457829003601f168201915b5050505050815260200160018201805461041a90610f1f565b80601f016020809104026020016040519081016040528092919081815260200182805461044690610f1f565b80156104915780601f1061046857610100808354040283529160200191610491565b820191905f5260205f20905b81548152906001019060200180831161047457829003601f168201915b5050505050815260200160028201805480602002602001604051908101604052809291908181526020015f905b82821015610566578382905f5260205f200180546104db90610f1f565b80601f016020809104026020016040519081016040528092919081815260200182805461050790610f1f565b80156105525780601f1061052957610100808354040283529160200191610552565b820191905f5260205f20905b81548152906001019060200180831161053557829003601f168201915b5050505050815260200190600101906104be565b50505050815260200160038201548152602001600482015f9054906101000a900460ff1615151515815250509050919050565b5f602052805f5260405f205f91509050805f0180546105b790610f1f565b80601f01602080910402602001604051908101604052809291908181526020018280546105e390610f1f565b801561062e5780601f106106055761010080835404028352916020019161062e565b820191905f5260205f20905b81548152906001019060200180831161061157829003601f168201915b50505050509080600101805461064390610f1f565b80601f016020809104026020016040519081016040528092919081815260200182805461066f90610f1f565b80156106ba5780601f10610691576101008083540402835291602001916106ba565b820191905f5260205f20905b81548152906001019060200180831161069d57829003601f168201915b505050505090806003015490806004015f9054906101000a900460ff16905084565b828054828255905f5260205f20908101928215610722579160200282015b8281111561072157825182908161071191906110ec565b50916020019190600101906106fa565b5b50905061072f9190610762565b5090565b6040518060a001604052806060815260200160608152602001606081526020015f81526020015f151581525090565b5b80821115610781575f81816107789190610785565b50600101610763565b5090565b50805461079190610f1f565b5f825580601f106107a257506107bf565b601f0160209004905f5260205f20908101906107be91906107c2565b5b50565b5b808211156107d9575f815f9055506001016107c3565b5090565b5f604051905090565b5f80fd5b5f80fd5b5f819050919050565b610800816107ee565b811461080a575f80fd5b50565b5f8135905061081b816107f7565b92915050565b5f60208284031215610836576108356107e6565b5b5f6108438482850161080d565b91505092915050565b5f73ffffffffffffffffffffffffffffffffffffffff82169050919050565b5f6108758261084c565b9050919050565b6108858161086b565b82525050565b5f60208201905061089e5f83018461087c565b92915050565b6108ad816107ee565b82525050565b5f6020820190506108c65f8301846108a4565b92915050565b5f80fd5b5f80fd5b5f601f19601f8301169050919050565b7f4e487b71000000000000000000000000000000000000000000000000000000005f52604160045260245ffd5b61091a826108d4565b810181811067ffffffffffffffff82111715610939576109386108e4565b5b80604052505050565b5f61094b6107dd565b90506109578282610911565b919050565b5f67ffffffffffffffff821115610976576109756108e4565b5b61097f826108d4565b9050602081019050919050565b828183375f83830152505050565b5f6109ac6109a78461095c565b610942565b9050828152602081018484840111156109c8576109c76108d0565b5b6109d384828561098c565b509392505050565b5f82601f8301126109ef576109ee6108cc565b5b81356109ff84826020860161099a565b91505092915050565b5f67ffffffffffffffff821115610a2257610a216108e4565b5b602082029050602081019050919050565b5f80fd5b5f610a49610a4484610a08565b610942565b90508083825260208201905060208402830185811115610a6c57610a6b610a33565b5b835b81811015610ab357803567ffffffffffffffff811115610a9157610a906108cc565b5b808601610a9e89826109db565b85526020850194505050602081019050610a6e565b5050509392505050565b5f82601f830112610ad157610ad06108cc565b5b8135610ae1848260208601610a37565b91505092915050565b5f805f60608486031215610b0157610b006107e6565b5b5f84013567ffffffffffffffff811115610b1e57610b1d6107ea565b5b610b2a868287016109db565b935050602084013567ffffffffffffffff811115610b4b57610b4a6107ea565b5b610b57868287016109db565b925050604084013567ffffffffffffffff811115610b7857610b776107ea565b5b610b8486828701610abd565b9150509250925092565b610b978161086b565b8114610ba1575f80fd5b50565b5f81359050610bb281610b8e565b92915050565b5f60208284031215610bcd57610bcc6107e6565b5b5f610bda84828501610ba4565b91505092915050565b5f81519050919050565b5f82825260208201905092915050565b5f5b83811015610c1a578082015181840152602081019050610bff565b5f8484015250505050565b5f610c2f82610be3565b610c398185610bed565b9350610c49818560208601610bfd565b610c52816108d4565b840191505092915050565b5f81519050919050565b5f82825260208201905092915050565b5f819050602082019050919050565b5f610c918383610c25565b905092915050565b5f602082019050919050565b5f610caf82610c5d565b610cb98185610c67565b935083602082028501610ccb85610c77565b805f5b85811015610d065784840389528151610ce78582610c86565b9450610cf283610c99565b925060208a01995050600181019050610cce565b50829750879550505050505092915050565b610d21816107ee565b82525050565b5f8115159050919050565b610d3b81610d27565b82525050565b5f60a083015f8301518482035f860152610d5b8282610c25565b91505060208301518482036020860152610d758282610c25565b91505060408301518482036040860152610d8f8282610ca5565b9150506060830151610da46060860182610d18565b506080830151610db76080860182610d32565b508091505092915050565b5f6020820190508181035f830152610dda8184610d41565b905092915050565b5f82825260208201905092915050565b5f610dfc82610be3565b610e068185610de2565b9350610e16818560208601610bfd565b610e1f816108d4565b840191505092915050565b610e3381610d27565b82525050565b5f6080820190508181035f830152610e518187610df2565b90508181036020830152610e658186610df2565b9050610e7460408301856108a4565b610e816060830184610e2a565b95945050505050565b7f446f6e6f7220616c7265616479207265676973746572656400000000000000005f82015250565b5f610ebe601883610de2565b9150610ec982610e8a565b602082019050919050565b5f6020820190508181035f830152610eeb81610eb2565b9050919050565b7f4e487b71000000000000000000000000000000000000000000000000000000005f52602260045260245ffd5b5f6002820490506001821680610f3657607f821691505b602082108103610f4957610f48610ef2565b5b50919050565b5f819050815f5260205f209050919050565b5f6020601f8301049050919050565b5f82821b905092915050565b5f60088302610fab7fffffffffffffffffffffffffffffffffffffffffffffffffffffffffffffffff82610f70565b610fb58683610f70565b95508019841693508086168417925050509392505050565b5f819050919050565b5f610ff0610feb610fe6846107ee565b610fcd565b6107ee565b9050919050565b5f819050919050565b61100983610fd6565b61101d61101582610ff7565b848454610f7c565b825550505050565b5f90565b611031611025565b61103c818484611000565b505050565b5b8181101561105f576110545f82611029565b600181019050611042565b5050565b601f8211156110a45761107581610f4f565b61107e84610f61565b8101602085101561108d578190505b6110a161109985610f61565b830182611041565b50505b505050565b5f82821c905092915050565b5f6110c45f19846008026110a9565b1980831691505092915050565b5f6110dc83836110b5565b9150826002028217905092915050565b6110f582610be3565b67ffffffffffffffff81111561110e5761110d6108e4565b5b6111188254610f1f565b611123828285611063565b5f60209050601f831160018114611154575f8415611142578287015190505b61114c85826110d1565b8655506111b3565b601f19841661116286610f4f565b5f5b8281101561118957848901518255600182019150602085019450602081019050611164565b868310156111a657848901516111a2601f8916826110b5565b8355505b6001600288020188555050505b50505050505056fea264697066735822122062d1f491f87cba20fbd1ee179bc52177895dc1894ba6b000e3590e1a21a779c564736f6c63430008150033",
  "immutableReferences": {},
  "source": "pragma solidity ^0.8.21;\r\n\r\ncontract DonorRegistry {\r\n    struct Donor {\r\n        string name;\r\n        string bloodGroup;\r\n        string[] organs;\r\n        uint256 registrationDate;\r\n        bool isAvailable;\r\n    }\r\n\r\n    mapping(address => Donor) public donors;\r\n    address[] public donorAddresses;\r\n\r\n    function registerDonor(string memory _name, string memory _bloodGroup, string[] memory _organs) public {\r\n        require(donors[msg.sender].registrationDate == 0, \"Donor already registered\");\r\n\r\n        donors[msg.sender] = Donor({\r\n            name: _name,\r\n            bloodGroup: _bloodGroup,\r\n            organs: _organs,\r\n            registrationDate: block.timestamp,\r\n            isAvailable: true\r\n        });\r\n\r\n        donorAddresses.push(msg.sender);\r\n    }\r\n\r\n    function getDonor(address _donorAddress) public view returns (Donor memory) {\r\n        return donors[_donorAddress];\r\n    }\r\n\r\n    function getDonorCount() public view returns (uint256) {\r\n        return donorAddresses.length;\r\n    }\r\n}\r\n",
  "sourcePath": "C:\\Users\\Karthik\\Desktop\\project\\project-bolt-sb1-jjdbm7re\\project\\contracts\\DonorRegistry.sol",
  "compiler": {
    "name": "solc",
    "version": "0.8.21+commit.d9974bed.Emscripten.clang"
  },
  "schemaVersion": "3.4.16",
  "updatedAt": "2024-12-24T13:35:51.759Z",
  "devdoc": {
    "kind": "dev",
    "methods": {},
    "version": 1
  },
  "userdoc": {
    "kind": "user",
    "methods": {},
    "version": 1
  }
}