{
  "contractName": "OrganDonationSystem",
  "abi": [
    {
      "inputs": [
        {
          "internalType": "address",
          "name": "_donorRegistryAddress",
          "type": "address"
        },
        {
          "internalType": "address",
          "name": "_recipientRegistryAddress",
          "type": "address"
        }
      ],
      "stateMutability": "nonpayable",
      "type": "constructor"
    },
    {
      "inputs": [],
      "name": "donorRegistry",
      "outputs": [
        {
          "internalType": "contract DonorRegistry",
          "name": "",
          "type": "address"
        }
      ],
      "stateMutability": "view",
      "type": "function"
    },
    {
      "inputs": [],
      "name": "recipientRegistry",
      "outputs": [
        {
          "internalType": "contract RecipientRegistry",
          "name": "",
          "type": "address"
        }
      ],
      "stateMutability": "view",
      "type": "function"
    },
    {
      "inputs": [
        {
          "internalType": "address",
          "name": "_donorAddress",
          "type": "address"
        },
        {
          "internalType": "address",
          "name": "_recipientAddress",
          "type": "address"
        }
      ],
      "name": "matchDonorToRecipient",
      "outputs": [
        {
          "internalType": "bool",
          "name": "",
          "type": "bool"
        }
      ],
      "stateMutability": "view",
      "type": "function"
    }
  ],
  "bytecode": "0x608060405234801561000f575f80fd5b50604051610c33380380610c3383398181016040528101906100319190610115565b815f806101000a81548173ffffffffffffffffffffffffffffffffffffffff021916908373ffffffffffffffffffffffffffffffffffffffff1602179055508060015f6101000a81548173ffffffffffffffffffffffffffffffffffffffff021916908373ffffffffffffffffffffffffffffffffffffffff1602179055505050610153565b5f80fd5b5f73ffffffffffffffffffffffffffffffffffffffff82169050919050565b5f6100e4826100bb565b9050919050565b6100f4816100da565b81146100fe575f80fd5b50565b5f8151905061010f816100eb565b92915050565b5f806040838503121561012b5761012a6100b7565b5b5f61013885828601610101565b925050602061014985828601610101565b9150509250929050565b610ad3806101605f395ff3fe608060405234801561000f575f80fd5b506004361061003f575f3560e01c80634b875a2c14610043578063c9e20dce14610061578063df32e2ec1461007f575b5f80fd5b61004b6100af565b604051610058919061039a565b60405180910390f35b6100696100d2565b60405161007691906103d3565b60405180910390f35b61009960048036038101906100949190610438565b6100f7565b6040516100a69190610490565b60405180910390f35b5f8054906101000a900473ffffffffffffffffffffffffffffffffffffffff1681565b60015f9054906101000a900473ffffffffffffffffffffffffffffffffffffffff1681565b5f805f8054906101000a900473ffffffffffffffffffffffffffffffffffffffff1673ffffffffffffffffffffffffffffffffffffffff166396c59043856040518263ffffffff1660e01b815260040161015191906104b8565b5f60405180830381865afa15801561016b573d5f803e3d5ffd5b505050506040513d5f823e3d601f19601f82011682018060405250810190610193919061084b565b90505f60015f9054906101000a900473ffffffffffffffffffffffffffffffffffffffff1673ffffffffffffffffffffffffffffffffffffffff166362812a39856040518263ffffffff1660e01b81526004016101f091906104b8565b5f60405180830381865afa15801561020a573d5f803e3d5ffd5b505050506040513d5f823e3d601f19601f8201168201806040525081019061023291906109cf565b905080602001516040516020016102499190610a5a565b6040516020818303038152906040528051906020012082602001516040516020016102749190610a5a565b60405160208183030381529060405280519060200120148015610304575080604001516040516020016102a79190610a5a565b6040516020818303038152906040528051906020012082604001515f815181106102d4576102d3610a70565b5b60200260200101516040516020016102ec9190610a5a565b60405160208183030381529060405280519060200120145b156103145760019250505061031a565b5f925050505b92915050565b5f73ffffffffffffffffffffffffffffffffffffffff82169050919050565b5f819050919050565b5f61036261035d61035884610320565b61033f565b610320565b9050919050565b5f61037382610348565b9050919050565b5f61038482610369565b9050919050565b6103948161037a565b82525050565b5f6020820190506103ad5f83018461038b565b92915050565b5f6103bd82610369565b9050919050565b6103cd816103b3565b82525050565b5f6020820190506103e65f8301846103c4565b92915050565b5f604051905090565b5f80fd5b5f80fd5b5f61040782610320565b9050919050565b610417816103fd565b8114610421575f80fd5b50565b5f813590506104328161040e565b92915050565b5f806040838503121561044e5761044d6103f5565b5b5f61045b85828601610424565b925050602061046c85828601610424565b9150509250929050565b5f8115159050919050565b61048a81610476565b82525050565b5f6020820190506104a35f830184610481565b92915050565b6104b2816103fd565b82525050565b5f6020820190506104cb5f8301846104a9565b92915050565b5f80fd5b5f601f19601f8301169050919050565b7f4e487b71000000000000000000000000000000000000000000000000000000005f52604160045260245ffd5b61051b826104d5565b810181811067ffffffffffffffff8211171561053a576105396104e5565b5b80604052505050565b5f61054c6103ec565b90506105588282610512565b919050565b5f80fd5b5f80fd5b5f80fd5b5f67ffffffffffffffff821115610583576105826104e5565b5b61058c826104d5565b9050602081019050919050565b5f5b838110156105b657808201518184015260208101905061059b565b5f8484015250505050565b5f6105d36105ce84610569565b610543565b9050828152602081018484840111156105ef576105ee610565565b5b6105fa848285610599565b509392505050565b5f82601f83011261061657610615610561565b5b81516106268482602086016105c1565b91505092915050565b5f67ffffffffffffffff821115610649576106486104e5565b5b602082029050602081019050919050565b5f80fd5b5f61067061066b8461062f565b610543565b905080838252602082019050602084028301858111156106935761069261065a565b5b835b818110156106da57805167ffffffffffffffff8111156106b8576106b7610561565b5b8086016106c58982610602565b85526020850194505050602081019050610695565b5050509392505050565b5f82601f8301126106f8576106f7610561565b5b815161070884826020860161065e565b91505092915050565b5f819050919050565b61072381610711565b811461072d575f80fd5b50565b5f8151905061073e8161071a565b92915050565b61074d81610476565b8114610757575f80fd5b50565b5f8151905061076881610744565b92915050565b5f60a08284031215610783576107826104d1565b5b61078d60a0610543565b90505f82015167ffffffffffffffff8111156107ac576107ab61055d565b5b6107b884828501610602565b5f83015250602082015167ffffffffffffffff8111156107db576107da61055d565b5b6107e784828501610602565b602083015250604082015167ffffffffffffffff81111561080b5761080a61055d565b5b610817848285016106e4565b604083015250606061082b84828501610730565b606083015250608061083f8482850161075a565b60808301525092915050565b5f602082840312156108605761085f6103f5565b5b5f82015167ffffffffffffffff81111561087d5761087c6103f9565b5b6108898482850161076e565b91505092915050565b5f60e082840312156108a7576108a66104d1565b5b6108b160e0610543565b90505f82015167ffffffffffffffff8111156108d0576108cf61055d565b5b6108dc84828501610602565b5f83015250602082015167ffffffffffffffff8111156108ff576108fe61055d565b5b61090b84828501610602565b602083015250604082015167ffffffffffffffff81111561092f5761092e61055d565b5b61093b84828501610602565b604083015250606082015167ffffffffffffffff81111561095f5761095e61055d565b5b61096b84828501610602565b606083015250608061097f84828501610730565b60808301525060a082015167ffffffffffffffff8111156109a3576109a261055d565b5b6109af84828501610602565b60a08301525060c06109c384828501610730565b60c08301525092915050565b5f602082840312156109e4576109e36103f5565b5b5f82015167ffffffffffffffff811115610a0157610a006103f9565b5b610a0d84828501610892565b91505092915050565b5f81519050919050565b5f81905092915050565b5f610a3482610a16565b610a3e8185610a20565b9350610a4e818560208601610599565b80840191505092915050565b5f610a658284610a2a565b915081905092915050565b7f4e487b71000000000000000000000000000000000000000000000000000000005f52603260045260245ffdfea26469706673582212206aa10e48f4ff571587b7a7af4e2009289a2d0d22621e8ec295db4c195fd80c1964736f6c63430008150033",
  "immutableReferences": {},
  "source": "pragma solidity ^0.8.21;\r\n\r\nimport \"./DonorRegistry.sol\";\r\nimport \"./RecipientRegistry.sol\";\r\n\r\ncontract OrganDonationSystem {\r\n    DonorRegistry public donorRegistry;\r\n    RecipientRegistry public recipientRegistry;\r\n\r\n    constructor(address _donorRegistryAddress, address _recipientRegistryAddress) {\r\n        donorRegistry = DonorRegistry(_donorRegistryAddress);\r\n        recipientRegistry = RecipientRegistry(_recipientRegistryAddress);\r\n    }\r\n\r\n    function matchDonorToRecipient(address _donorAddress, address _recipientAddress) public view returns (bool) {\r\n        DonorRegistry.Donor memory donor = donorRegistry.getDonor(_donorAddress);\r\n        RecipientRegistry.Recipient memory recipient = recipientRegistry.getRecipient(_recipientAddress);\r\n\r\n        // Simple matching logic based on blood group and organ\r\n        if (keccak256(abi.encodePacked(donor.bloodGroup)) == keccak256(abi.encodePacked(recipient.bloodGroup)) &&\r\n            keccak256(abi.encodePacked(donor.organs[0])) == keccak256(abi.encodePacked(recipient.organ))) {\r\n            return true; // Match found\r\n        }\r\n        return false; // No match\r\n    }\r\n}\r\n",
  "sourcePath": "C:\\Users\\Karthik\\Desktop\\project\\project-bolt-sb1-jjdbm7re\\project\\contracts\\OrganDonationSystem.sol",
  "compiler": {
    "name": "solc",
    "version": "0.8.21+commit.d9974bed.Emscripten.clang"
  },
  "schemaVersion": "3.4.16",
  "updatedAt": "2024-12-24T13:35:51.772Z",
  "devdoc": {
    "kind": "dev",
    "methods": {},
    "version": 1
  },
  "userdoc": {
    "kind": "user",
    "methods": {},
    "version": 1
  }
}