{
  "contractName": "RecipientRegistry",
  "abi": [
    {
      "inputs": [
        {
          "internalType": "uint256",
          "name": "",
          "type": "uint256"
        }
      ],
      "name": "recipientAddresses",
      "outputs": [
        {
          "internalType": "address",
          "name": "",
          "type": "address"
        }
      ],
      "stateMutability": "view",
      "type": "function"
    },
    {
      "inputs": [
        {
          "internalType": "address",
          "name": "",
          "type": "address"
        }
      ],
      "name": "recipients",
      "outputs": [
        {
          "internalType": "string",
          "name": "name",
          "type": "string"
        },
        {
          "internalType": "string",
          "name": "bloodGroup",
          "type": "string"
        },
        {
          "internalType": "string",
          "name": "organ",
          "type": "string"
        },
        {
          "internalType": "string",
          "name": "urgencyLevel",
          "type": "string"
        },
        {
          "internalType": "uint256",
          "name": "age",
          "type": "uint256"
        },
        {
          "internalType": "string",
          "name": "contact",
          "type": "string"
        },
        {
          "internalType": "uint256",
          "name": "registrationDate",
          "type": "uint256"
        }
      ],
      "stateMutability": "view",
      "type": "function"
    },
    {
      "inputs": [
        {
          "internalType": "string",
          "name": "_name",
          "type": "string"
        },
        {
          "internalType": "string",
          "name": "_bloodGroup",
          "type": "string"
        },
        {
          "internalType": "string",
          "name": "_organ",
          "type": "string"
        },
        {
          "internalType": "string",
          "name": "_urgencyLevel",
          "type": "string"
        },
        {
          "internalType": "uint256",
          "name": "_age",
          "type": "uint256"
        },
        {
          "internalType": "string",
          "name": "_contact",
          "type": "string"
        }
      ],
      "name": "registerRecipient",
      "outputs": [],
      "stateMutability": "nonpayable",
      "type": "function"
    },
    {
      "inputs": [
        {
          "internalType": "address",
          "name": "_recipientAddress",
          "type": "address"
        }
      ],
      "name": "getRecipient",
      "outputs": [
        {
          "components": [
            {
              "internalType": "string",
              "name": "name",
              "type": "string"
            },
            {
              "internalType": "string",
              "name": "bloodGroup",
              "type": "string"
            },
            {
              "internalType": "string",
              "name": "organ",
              "type": "string"
            },
            {
              "internalType": "string",
              "name": "urgencyLevel",
              "type": "string"
            },
            {
              "internalType": "uint256",
              "name": "age",
              "type": "uint256"
            },
            {
              "internalType": "string",
              "name": "contact",
              "type": "string"
            },
            {
              "internalType": "uint256",
              "name": "registrationDate",
              "type": "uint256"
            }
          ],
          "internalType": "struct RecipientRegistry.Recipient",
          "name": "",
          "type": "tuple"
        }
      ],
      "stateMutability": "view",
      "type": "function"
    },
    {
      "inputs": [],
      "name": "getRecipientCount",
      "outputs": [
        {
          "internalType": "uint256",
          "name": "",
          "type": "uint256"
        }
      ],
      "stateMutability": "view",
      "type": "function"
    }
  ],
  "bytecode": "0x608060405234801561000f575f80fd5b506112cc8061001d5f395ff3fe608060405234801561000f575f80fd5b5060043610610055575f3560e01c80633beb128f1461005957806362812a3914610089578063719fce99146100b9578063af99b63f146100d5578063eb820312146100f3575b5f80fd5b610073600480360381019061006e91906109de565b610129565b6040516100809190610a48565b60405180910390f35b6100a3600480360381019061009e9190610a8b565b610164565b6040516100b09190610c04565b60405180910390f35b6100d360048036038101906100ce9190610d50565b61049d565b005b6100dd610678565b6040516100ea9190610e74565b60405180910390f35b61010d60048036038101906101089190610a8b565b610684565b6040516101209796959493929190610ed5565b60405180910390f35b60018181548110610138575f80fd5b905f5260205f20015f915054906101000a900473ffffffffffffffffffffffffffffffffffffffff1681565b61016c61095f565b5f808373ffffffffffffffffffffffffffffffffffffffff1673ffffffffffffffffffffffffffffffffffffffff1681526020019081526020015f206040518060e00160405290815f820180546101c290610f92565b80601f01602080910402602001604051908101604052809291908181526020018280546101ee90610f92565b80156102395780601f1061021057610100808354040283529160200191610239565b820191905f5260205f20905b81548152906001019060200180831161021c57829003601f168201915b5050505050815260200160018201805461025290610f92565b80601f016020809104026020016040519081016040528092919081815260200182805461027e90610f92565b80156102c95780601f106102a0576101008083540402835291602001916102c9565b820191905f5260205f20905b8154815290600101906020018083116102ac57829003601f168201915b505050505081526020016002820180546102e290610f92565b80601f016020809104026020016040519081016040528092919081815260200182805461030e90610f92565b80156103595780601f1061033057610100808354040283529160200191610359565b820191905f5260205f20905b81548152906001019060200180831161033c57829003601f168201915b5050505050815260200160038201805461037290610f92565b80601f016020809104026020016040519081016040528092919081815260200182805461039e90610f92565b80156103e95780601f106103c0576101008083540402835291602001916103e9565b820191905f5260205f20905b8154815290600101906020018083116103cc57829003601f168201915b505050505081526020016004820154815260200160058201805461040c90610f92565b80601f016020809104026020016040519081016040528092919081815260200182805461043890610f92565b80156104835780601f1061045a57610100808354040283529160200191610483565b820191905f5260205f20905b81548152906001019060200180831161046657829003601f168201915b505050505081526020016006820154815250509050919050565b5f805f3373ffffffffffffffffffffffffffffffffffffffff1673ffffffffffffffffffffffffffffffffffffffff1681526020019081526020015f20600601541461051e576040517f08c379a00000000000000000000000000000000000000000000000000000000081526004016105159061100c565b60405180910390fd5b6040518060e00160405280878152602001868152602001858152602001848152602001838152602001828152602001428152505f803373ffffffffffffffffffffffffffffffffffffffff1673ffffffffffffffffffffffffffffffffffffffff1681526020019081526020015f205f820151815f0190816105a091906111c7565b5060208201518160010190816105b691906111c7565b5060408201518160020190816105cc91906111c7565b5060608201518160030190816105e291906111c7565b506080820151816004015560a082015181600501908161060291906111c7565b5060c08201518160060155905050600133908060018154018082558091505060019003905f5260205f20015f9091909190916101000a81548173ffffffffffffffffffffffffffffffffffffffff021916908373ffffffffffffffffffffffffffffffffffffffff160217905550505050505050565b5f600180549050905090565b5f602052805f5260405f205f91509050805f0180546106a290610f92565b80601f01602080910402602001604051908101604052809291908181526020018280546106ce90610f92565b80156107195780601f106106f057610100808354040283529160200191610719565b820191905f5260205f20905b8154815290600101906020018083116106fc57829003601f168201915b50505050509080600101805461072e90610f92565b80601f016020809104026020016040519081016040528092919081815260200182805461075a90610f92565b80156107a55780601f1061077c576101008083540402835291602001916107a5565b820191905f5260205f20905b81548152906001019060200180831161078857829003601f168201915b5050505050908060020180546107ba90610f92565b80601f01602080910402602001604051908101604052809291908181526020018280546107e690610f92565b80156108315780601f1061080857610100808354040283529160200191610831565b820191905f5260205f20905b81548152906001019060200180831161081457829003601f168201915b50505050509080600301805461084690610f92565b80601f016020809104026020016040519081016040528092919081815260200182805461087290610f92565b80156108bd5780601f10610894576101008083540402835291602001916108bd565b820191905f5260205f20905b8154815290600101906020018083116108a057829003601f168201915b5050505050908060040154908060050180546108d890610f92565b80601f016020809104026020016040519081016040528092919081815260200182805461090490610f92565b801561094f5780601f106109265761010080835404028352916020019161094f565b820191905f5260205f20905b81548152906001019060200180831161093257829003601f168201915b5050505050908060060154905087565b6040518060e00160405280606081526020016060815260200160608152602001606081526020015f8152602001606081526020015f81525090565b5f604051905090565b5f80fd5b5f80fd5b5f819050919050565b6109bd816109ab565b81146109c7575f80fd5b50565b5f813590506109d8816109b4565b92915050565b5f602082840312156109f3576109f26109a3565b5b5f610a00848285016109ca565b91505092915050565b5f73ffffffffffffffffffffffffffffffffffffffff82169050919050565b5f610a3282610a09565b9050919050565b610a4281610a28565b82525050565b5f602082019050610a5b5f830184610a39565b92915050565b610a6a81610a28565b8114610a74575f80fd5b50565b5f81359050610a8581610a61565b92915050565b5f60208284031215610aa057610a9f6109a3565b5b5f610aad84828501610a77565b91505092915050565b5f81519050919050565b5f82825260208201905092915050565b5f5b83811015610aed578082015181840152602081019050610ad2565b5f8484015250505050565b5f601f19601f8301169050919050565b5f610b1282610ab6565b610b1c8185610ac0565b9350610b2c818560208601610ad0565b610b3581610af8565b840191505092915050565b610b49816109ab565b82525050565b5f60e083015f8301518482035f860152610b698282610b08565b91505060208301518482036020860152610b838282610b08565b91505060408301518482036040860152610b9d8282610b08565b91505060608301518482036060860152610bb78282610b08565b9150506080830151610bcc6080860182610b40565b5060a083015184820360a0860152610be48282610b08565b91505060c0830151610bf960c0860182610b40565b508091505092915050565b5f6020820190508181035f830152610c1c8184610b4f565b905092915050565b5f80fd5b5f80fd5b7f4e487b71000000000000000000000000000000000000000000000000000000005f52604160045260245ffd5b610c6282610af8565b810181811067ffffffffffffffff82111715610c8157610c80610c2c565b5b80604052505050565b5f610c9361099a565b9050610c9f8282610c59565b919050565b5f67ffffffffffffffff821115610cbe57610cbd610c2c565b5b610cc782610af8565b9050602081019050919050565b828183375f83830152505050565b5f610cf4610cef84610ca4565b610c8a565b905082815260208101848484011115610d1057610d0f610c28565b5b610d1b848285610cd4565b509392505050565b5f82601f830112610d3757610d36610c24565b5b8135610d47848260208601610ce2565b91505092915050565b5f805f805f8060c08789031215610d6a57610d696109a3565b5b5f87013567ffffffffffffffff811115610d8757610d866109a7565b5b610d9389828a01610d23565b965050602087013567ffffffffffffffff811115610db457610db36109a7565b5b610dc089828a01610d23565b955050604087013567ffffffffffffffff811115610de157610de06109a7565b5b610ded89828a01610d23565b945050606087013567ffffffffffffffff811115610e0e57610e0d6109a7565b5b610e1a89828a01610d23565b9350506080610e2b89828a016109ca565b92505060a087013567ffffffffffffffff811115610e4c57610e4b6109a7565b5b610e5889828a01610d23565b9150509295509295509295565b610e6e816109ab565b82525050565b5f602082019050610e875f830184610e65565b92915050565b5f82825260208201905092915050565b5f610ea782610ab6565b610eb18185610e8d565b9350610ec1818560208601610ad0565b610eca81610af8565b840191505092915050565b5f60e0820190508181035f830152610eed818a610e9d565b90508181036020830152610f018189610e9d565b90508181036040830152610f158188610e9d565b90508181036060830152610f298187610e9d565b9050610f386080830186610e65565b81810360a0830152610f4a8185610e9d565b9050610f5960c0830184610e65565b98975050505050505050565b7f4e487b71000000000000000000000000000000000000000000000000000000005f52602260045260245ffd5b5f6002820490506001821680610fa957607f821691505b602082108103610fbc57610fbb610f65565b5b50919050565b7f526563697069656e7420616c72656164792072656769737465726564000000005f82015250565b5f610ff6601c83610e8d565b915061100182610fc2565b602082019050919050565b5f6020820190508181035f83015261102381610fea565b9050919050565b5f819050815f5260205f209050919050565b5f6020601f8301049050919050565b5f82821b905092915050565b5f600883026110867fffffffffffffffffffffffffffffffffffffffffffffffffffffffffffffffff8261104b565b611090868361104b565b95508019841693508086168417925050509392505050565b5f819050919050565b5f6110cb6110c66110c1846109ab565b6110a8565b6109ab565b9050919050565b5f819050919050565b6110e4836110b1565b6110f86110f0826110d2565b848454611057565b825550505050565b5f90565b61110c611100565b6111178184846110db565b505050565b5b8181101561113a5761112f5f82611104565b60018101905061111d565b5050565b601f82111561117f576111508161102a565b6111598461103c565b81016020851015611168578190505b61117c6111748561103c565b83018261111c565b50505b505050565b5f82821c905092915050565b5f61119f5f1984600802611184565b1980831691505092915050565b5f6111b78383611190565b9150826002028217905092915050565b6111d082610ab6565b67ffffffffffffffff8111156111e9576111e8610c2c565b5b6111f38254610f92565b6111fe82828561113e565b5f60209050601f83116001811461122f575f841561121d578287015190505b61122785826111ac565b86555061128e565b601f19841661123d8661102a565b5f5b828110156112645784890151825560018201915060208501945060208101905061123f565b86831015611281578489015161127d601f891682611190565b8355505b6001600288020188555050505b50505050505056fea2646970667358221220471f94ec7c7455c2568b71dd9a916845807d3bbb3a152e6868c95a9899c2ee5c64736f6c63430008150033",
  "immutableReferences": {},
  "source": "pragma solidity ^0.8.21;\r\n\r\ncontract RecipientRegistry {\r\n    struct Recipient {\r\n        string name;\r\n        string bloodGroup;\r\n        string organ;\r\n        string urgencyLevel;\r\n        uint256 age;\r\n        string contact;\r\n        uint256 registrationDate;\r\n    }\r\n\r\n    mapping(address => Recipient) public recipients;\r\n    address[] public recipientAddresses;\r\n\r\n    function registerRecipient(string memory _name, string memory _bloodGroup, string memory _organ, string memory _urgencyLevel, uint256 _age, string memory _contact) public {\r\n        require(recipients[msg.sender].registrationDate == 0, \"Recipient already registered\");\r\n\r\n        recipients[msg.sender] = Recipient({\r\n            name: _name,\r\n            bloodGroup: _bloodGroup,\r\n            organ: _organ,\r\n            urgencyLevel: _urgencyLevel,\r\n            age: _age,\r\n            contact: _contact,\r\n            registrationDate: block.timestamp\r\n        });\r\n\r\n        recipientAddresses.push(msg.sender);\r\n    }\r\n\r\n    function getRecipient(address _recipientAddress) public view returns (Recipient memory) {\r\n        return recipients[_recipientAddress];\r\n    }\r\n\r\n    function getRecipientCount() public view returns (uint256) {\r\n        return recipientAddresses.length;\r\n    }\r\n}\r\n",
  "sourcePath": "C:\\Users\\Karthik\\Desktop\\project\\project-bolt-sb1-jjdbm7re\\project\\contracts\\RecipientRegistry.sol",
  "compiler": {
    "name": "solc",
    "version": "0.8.21+commit.d9974bed.Emscripten.clang"
  },
  "schemaVersion": "3.4.16",
  "updatedAt": "2024-12-24T13:35:51.783Z",
  "devdoc": {
    "kind": "dev",
    "methods": {},
    "version": 1
  },
  "userdoc": {
    "kind": "user",
    "methods": {},
    "version": 1
  }
}